{
  "contractName": "DethSwitch",
  "abi": [
    {
      "constant": false,
      "inputs": [
        {
          "name": "_tokenAddr",
          "type": "address"
        }
      ],
      "name": "withdraw",
      "outputs": [
        {
          "name": "success",
          "type": "bool"
        }
      ],
      "payable": false,
      "stateMutability": "nonpayable",
      "type": "function"
    },
    {
      "constant": true,
      "inputs": [],
      "name": "Name",
      "outputs": [
        {
          "name": "",
          "type": "string"
        }
      ],
      "payable": false,
      "stateMutability": "view",
      "type": "function"
    },
    {
      "constant": true,
      "inputs": [
        {
          "name": "_tokenAddr",
          "type": "address"
        }
      ],
      "name": "getAllowance",
      "outputs": [
        {
          "name": "amount",
          "type": "uint256"
        }
      ],
      "payable": false,
      "stateMutability": "view",
      "type": "function"
    },
    {
      "inputs": [
        {
          "name": "_parent",
          "type": "address"
        },
        {
          "name": "_heir",
          "type": "address"
        },
        {
          "name": "_name",
          "type": "string"
        }
      ],
      "payable": false,
      "stateMutability": "nonpayable",
      "type": "constructor"
    }
  ],
  "bytecode": "0x6060604052341561000f57600080fd5b60405161073c38038061073c8339810160405280805190602001909190805190602001909190805182019190505082600160000160006101000a81548173ffffffffffffffffffffffffffffffffffffffff021916908373ffffffffffffffffffffffffffffffffffffffff1602179055506000600160000160146101000a81548160ff02191690831515021790555081600260006101000a81548173ffffffffffffffffffffffffffffffffffffffff021916908373ffffffffffffffffffffffffffffffffffffffff16021790555080600090805190602001906100f69291906100ff565b505050506101a4565b828054600181600116156101000203166002900490600052602060002090601f016020900481019282601f1061014057805160ff191683800117855561016e565b8280016001018555821561016e579182015b8281111561016d578251825591602001919060010190610152565b5b50905061017b919061017f565b5090565b6101a191905b8082111561019d576000816000905550600101610185565b5090565b90565b610589806101b36000396000f300606060405260043610610057576000357c0100000000000000000000000000000000000000000000000000000000900463ffffffff16806351cff8d91461005c5780638052474d146100ad578063eb5a662e1461013b575b600080fd5b341561006757600080fd5b610093600480803573ffffffffffffffffffffffffffffffffffffffff16906020019091905050610188565b604051808215151515815260200191505060405180910390f35b34156100b857600080fd5b6100c061027b565b6040518080602001828103825283818151815260200191508051906020019080838360005b838110156101005780820151818401526020810190506100e5565b50505050905090810190601f16801561012d5780820380516001836020036101000a031916815260200191505b509250505060405180910390f35b341561014657600080fd5b610172600480803573ffffffffffffffffffffffffffffffffffffffff16906020019091905050610319565b6040518082815260200191505060405180910390f35b600080600260009054906101000a900473ffffffffffffffffffffffffffffffffffffffff1673ffffffffffffffffffffffffffffffffffffffff163373ffffffffffffffffffffffffffffffffffffffff161415156101e757600080fd5b60001515600160000160149054906101000a900460ff16151514151561020c57600080fd5b61021583610319565b9050600081111561027557610273600160000160009054906101000a900473ffffffffffffffffffffffffffffffffffffffff16600260009054906101000a900473ffffffffffffffffffffffffffffffffffffffff168386610441565b505b50919050565b60008054600181600116156101000203166002900480601f0160208091040260200160405190810160405280929190818152602001828054600181600116156101000203166002900480156103115780601f106102e657610100808354040283529160200191610311565b820191906000526020600020905b8154815290600101906020018083116102f457829003601f168201915b505050505081565b6000808290508073ffffffffffffffffffffffffffffffffffffffff1663dd62ed3e600160000160009054906101000a900473ffffffffffffffffffffffffffffffffffffffff16306000604051602001526040518363ffffffff167c0100000000000000000000000000000000000000000000000000000000028152600401808373ffffffffffffffffffffffffffffffffffffffff1673ffffffffffffffffffffffffffffffffffffffff1681526020018273ffffffffffffffffffffffffffffffffffffffff1673ffffffffffffffffffffffffffffffffffffffff16815260200192505050602060405180830381600087803b151561041b57600080fd5b6102c65a03f1151561042c57600080fd5b50505060405180519050915081915050919050565b6000808290508073ffffffffffffffffffffffffffffffffffffffff166323b872dd8787876000604051602001526040518463ffffffff167c0100000000000000000000000000000000000000000000000000000000028152600401808473ffffffffffffffffffffffffffffffffffffffff1673ffffffffffffffffffffffffffffffffffffffff1681526020018373ffffffffffffffffffffffffffffffffffffffff1673ffffffffffffffffffffffffffffffffffffffff1681526020018281526020019350505050602060405180830381600087803b151561052657600080fd5b6102c65a03f1151561053757600080fd5b505050604051805190501561054f5760019150610554565b600091505b509493505050505600a165627a7a723058205fad8500978cacc1b513568be6decce44208ee668ff1d8a50aa66b54e3f5173e0029",
  "source": "pragma solidity ^0.4.4;\n\ncontract ERC20Token {\n    // function definition of generic ERC20 token\n    // necessary for DethSwitch to be able to reference functions in another contract\n    function transferFrom(address _from, address _to, uint _value) returns (bool success) {}\n    function allowance(address _owner, address _spender) constant returns (uint256 remaining) {}\n}\n\ncontract DethSwitch {\n    \n    // TODO: make DethSwitch contract factory\n    // TODO: make mapping that stores token addresses, heirs and values\n    // TODO: onlyParent modifier\n    // TODO: onlyHeir modifier\n\n    // Dame of this contract instance\n    string public Name;\n\n    // Store parents and heir\n    struct Parent {\n        address addr;\n        bool alive;\n    }\n\n    Parent parent;\n    address heir;\n\n    modifier onlyParent() {\n        require(msg.sender == parent.addr);\n        _;\n    }\n\n    modifier onlyHeir() {\n        require(msg.sender == heir);\n        _;\n    }\n\n    modifier onlyIfDead() {\n        require(parent.alive == false);\n        _;\n    }\n\n\n    function DethSwitch(address _parent, address _heir, string _name) {\n    // constructor\n        parent.addr = _parent;\n        // for debugging, parent always dead\n        parent.alive = false;\n\n        heir = _heir;\n        Name = _name;\n    }\n\n    function transferThrough(address _from, address _to, uint256 _value, address _tokenAddr) internal returns (bool success) {\n        // Calls transferFrom at specified token address\n        // Should only be able to be called by withdraw after verification\n        ERC20Token tok = ERC20Token(_tokenAddr);\n        if (tok.transferFrom(_from, _to, _value)) {\n            return true;\n        }\n        else {\n            return false;\n        }\n    }\n\n    function getAllowance(address _tokenAddr) constant returns (uint256 amount) {\n        // Find how much this DethSwitch contract is allowed to send on behalf of parent\n        ERC20Token tok = ERC20Token(_tokenAddr);\n        amount = tok.allowance(parent.addr, address(this));\n        return amount;\n    }\n\n    function withdraw(address _tokenAddr) onlyHeir onlyIfDead returns (bool success) {\n        uint256 amount;\n        amount = getAllowance(_tokenAddr);\n        if (amount > 0) {\n            transferThrough(parent.addr, heir, amount, _tokenAddr);\n        }\n    }\n\n}\n\ncontract DethSwitchFactory {\n\n    bytes32[] public names;\n    address[] public contracts;\n\n    struct deployedContract{\n        address contractAddr;\n        address heir;\n        string name;\n    }\n\n    mapping (address => deployedContract) public deployedContracts;\n\n    // Deploys new DethSwitch contract\n    function newDethSwitch(address _heir, string _name) returns (address addr) {\n        address newDethSwitchAddress;\n        newDethSwitchAddress = new DethSwitch(msg.sender, _heir, _name);\n        deployedContract newDethSwitchContract;\n        newDethSwitchContract.contractAddr = newDethSwitchAddress;\n        newDethSwitchContract.heir = _heir;\n        newDethSwitchContract.name = _name;\n        deployedContracts[msg.sender] = newDethSwitchContract;\n        return newDethSwitchAddress;\n    }\n\n    function getName() view returns(string contractName) {\n        return deployedContracts[msg.sender].name;\n    }\n\n    function getAddress() view returns(address contractAddress) {\n        return deployedContracts[msg.sender].contractAddr;\n    }\n\n    function getHeir() view returns(address heirAddress) {\n        return deployedContracts[msg.sender].heir;\n    }\n\n\n\n}\n",
  "sourcePath": "/Users/leogonzalez/Documents/DethSwitch/contracts/DethSwitchFactory.sol",
  "compiler": {
    "name": "solc",
    "version": "0.4.18+commit.9cf6e910.Emscripten.clang"
  },
  "schemaVersion": "1.0.1",
  "updatedAt": "2017-12-05T17:22:16.451Z"
}