{
  "contractName": "ERC20Token",
  "abi": [
    {
      "constant": false,
      "inputs": [
        {
          "name": "_from",
          "type": "address"
        },
        {
          "name": "_to",
          "type": "address"
        },
        {
          "name": "_value",
          "type": "uint256"
        }
      ],
      "name": "transferFrom",
      "outputs": [
        {
          "name": "success",
          "type": "bool"
        }
      ],
      "payable": false,
      "stateMutability": "nonpayable",
      "type": "function"
    },
    {
      "constant": true,
      "inputs": [
        {
          "name": "_owner",
          "type": "address"
        },
        {
          "name": "_spender",
          "type": "address"
        }
      ],
      "name": "allowance",
      "outputs": [
        {
          "name": "remaining",
          "type": "uint256"
        }
      ],
      "payable": false,
      "stateMutability": "view",
      "type": "function"
    }
  ],
  "bytecode": "0x6060604052341561000f57600080fd5b6101738061001e6000396000f30060606040526004361061004c576000357c0100000000000000000000000000000000000000000000000000000000900463ffffffff16806323b872dd14610051578063dd62ed3e146100ca575b600080fd5b341561005c57600080fd5b6100b0600480803573ffffffffffffffffffffffffffffffffffffffff1690602001909190803573ffffffffffffffffffffffffffffffffffffffff16906020019091908035906020019091905050610136565b604051808215151515815260200191505060405180910390f35b34156100d557600080fd5b610120600480803573ffffffffffffffffffffffffffffffffffffffff1690602001909190803573ffffffffffffffffffffffffffffffffffffffff1690602001909190505061013f565b6040518082815260200191505060405180910390f35b60009392505050565b6000929150505600a165627a7a7230582012de5ab143d329a11340c76e3b5d4638416b7944295d7269691bb8b9e1f75ae60029",
  "source": "pragma solidity ^0.4.4;\n\ncontract ERC20Token {\n    // function definition of generic ERC20 token\n    // necessary for DethSwitch to be able to reference functions in another contract\n    function transferFrom(address _from, address _to, uint _value) returns (bool success) {}\n    function allowance(address _owner, address _spender) constant returns (uint256 remaining) {}\n}\n\ncontract DethSwitch {\n    \n    // TODO: make DethSwitch contract factory\n    // TODO: make mapping that stores token addresses, heirs and values\n    // TODO: onlyParent modifier\n    // TODO: onlyHeir modifier\n\n    // Dame of this contract instance\n    string public Name;\n\n    // Store parents and heir\n    struct Parent {\n        address addr;\n        bool alive;\n    }\n\n    Parent parent;\n    address heir;\n\n    modifier onlyParent() {\n        require(msg.sender == parent.addr);\n        _;\n    }\n\n    modifier onlyHeir() {\n        require(msg.sender == heir);\n        _;\n    }\n\n    modifier onlyIfDead() {\n        require(parent.alive == false);\n        _;\n    }\n\n\n    function DethSwitch(address _parent, address _heir, string _name) {\n    // constructor\n        parent.addr = _parent;\n        // for debugging, parent always dead\n        parent.alive = false;\n\n        heir = _heir;\n        Name = _name;\n    }\n\n    function transferThrough(address _from, address _to, uint256 _value, address _tokenAddr) internal returns (bool success) {\n        // Calls transferFrom at specified token address\n        // Should only be able to be called by withdraw after verification\n        ERC20Token tok = ERC20Token(_tokenAddr);\n        if (tok.transferFrom(_from, _to, _value)) {\n            return true;\n        }\n        else {\n            return false;\n        }\n    }\n\n    function getAllowance(address _tokenAddr) constant returns (uint256 amount) {\n        // Find how much this DethSwitch contract is allowed to send on behalf of parent\n        ERC20Token tok = ERC20Token(_tokenAddr);\n        amount = tok.allowance(parent.addr, address(this));\n        return amount;\n    }\n\n    function withdraw(address _tokenAddr) onlyHeir onlyIfDead returns (bool success) {\n        uint256 amount;\n        amount = getAllowance(_tokenAddr);\n        if (amount > 0) {\n            transferThrough(parent.addr, heir, amount, _tokenAddr);\n        }\n    }\n\n}\n\ncontract DethSwitchFactory {\n\n    bytes32[] public names;\n    address[] public contracts;\n\n    struct deployedContract{\n        address contractAddr;\n        address heir;\n        string name;\n    }\n\n    mapping (address => deployedContract) public deployedContracts;\n\n    // Deploys new DethSwitch contract\n    function newDethSwitch(address _heir, string _name) returns (address addr) {\n        address newDethSwitchAddress;\n        newDethSwitchAddress = new DethSwitch(msg.sender, _heir, _name);\n        deployedContract newDethSwitchContract;\n        newDethSwitchContract.contractAddr = newDethSwitchAddress;\n        newDethSwitchContract.heir = _heir;\n        newDethSwitchContract.name = _name;\n        deployedContracts[msg.sender] = newDethSwitchContract;\n        return newDethSwitchAddress;\n    }\n\n    function getName() view returns(string contractName) {\n        return deployedContracts[msg.sender].name;\n    }\n\n    function getAddress() view returns(address contractAddress) {\n        return deployedContracts[msg.sender].contractAddr;\n    }\n\n    function getHeir() view returns(address heirAddress) {\n        return deployedContracts[msg.sender].heir;\n    }\n\n\n\n}\n",
  "sourcePath": "/Users/leogonzalez/Documents/DethSwitch/contracts/DethSwitchFactory.sol",
  "compiler": {
    "name": "solc",
    "version": "0.4.18+commit.9cf6e910.Emscripten.clang"
  },
  "schemaVersion": "1.0.1",
  "updatedAt": "2017-12-05T17:22:16.463Z"
}