{
  "contractName": "ERC20Token",
  "abi": [
    {
      "constant": false,
      "inputs": [
        {
          "name": "from",
          "type": "address"
        },
        {
          "name": "to",
          "type": "address"
        },
        {
          "name": "value",
          "type": "uint256"
        }
      ],
      "name": "transferFrom",
      "outputs": [
        {
          "name": "success",
          "type": "bool"
        }
      ],
      "payable": false,
      "stateMutability": "nonpayable",
      "type": "function"
    }
  ],
  "bytecode": "0x6060604052341561000f57600080fd5b60ef8061001d6000396000f300606060405260043610603f576000357c0100000000000000000000000000000000000000000000000000000000900463ffffffff16806323b872dd146044575b600080fd5b3415604e57600080fd5b60a0600480803573ffffffffffffffffffffffffffffffffffffffff1690602001909190803573ffffffffffffffffffffffffffffffffffffffff1690602001909190803590602001909190505060ba565b604051808215151515815260200191505060405180910390f35b600093925050505600a165627a7a72305820fa3eb6e46624682252fd8a73dbc0c029769da8e529af97fbe0ef380a028a3fa90029",
  "source": "pragma solidity ^0.4.4;\n\ncontract DethSwitch {\n\n    // TODO: make DethSwitch contract factory\n    // TODO: make mapping that stores token addresses, heirs and values\n\n    function DethSwitch() {\n    // constructor\n    }\n\n    function transferThrough(address _from, address _to, uint256 _value, address _tokenAddr) returns (bool success) {\n        // Calls transferFrom at specified token address\n        ERC20Token tok = ERC20Token(_tokenAddr);\n        if (tok.transferFrom(_from, _to, _value)) {\n            return true;\n        }\n        else {\n            return false;\n        }\n    }\n\n}\n\ncontract ERC20Token {\n    function transferFrom(address from, address to, uint value) returns (bool success) {}\n}\n",
  "sourcePath": "/Users/leogonzalez/Documents/DethSwitch/contracts/DethSwitch.sol",
  "compiler": {
    "name": "solc",
    "version": "0.4.18+commit.9cf6e910.Emscripten.clang"
  },
  "schemaVersion": "1.0.1",
  "updatedAt": "2017-12-05T15:31:03.676Z"
}